:020000040000FA
:1000000001288316031387170713193099008C13DF
:10001000F0308600880198011813981618151812E8
:1000200083129817181318161820880052201428C5
:10003000B0010E308600061E2E28B00A861E2E281D
:10004000B00A061F2E28B00A861F2E28B00A0C30D0
:100050003002031918280314860D1B284820482055
:10006000061E3028861E3228061F3428861F362892
:1000700030083B20080082070134043407340A3476
:1000800002340534083400340334063409340B34A4
:10009000FF30B200F930B1000000B10B4C28B20BB8
:1000A0004A280800A3005E20880023088316031353
:1000B000981C5828831203139900080082074034C3
:1000C000793424343034193412340334783400341D
:0E00D0001834083409344634403406340E34F3
:02400E00313F40
:00000001FF
