:020000040000FA
:020000001228C4
:08000800A500030EA6008312FF
:10001000031327140B1108308100260E8300A50E50
:10002000250E090083160313A0308B008030860054
:100030008130810083120313083081000F30A0004B
:100040000330A1000B30A200A301A4012308240760
:1000500039208600A40A6A20A10B2628A401A20B3D
:1000600026280B30A2000330A307A401A00B2628EA
:100070001E288207BF34BF34BF34DF349F349F341F
:10008000EF34CF348F34F734E734C734FB34F334F0
:10009000E334FD34F934F134FE34FC34F834FE3406
:1000A000FE34FC34FE34FE34FE34FD34FC34FC34C7
:1000B000FB34F934F834F734F334F134EF34E73403
:1000C000E334DF34CF34C734BF349F348F34BF348C
:0C00D000BF349F34271C6A28271008004A
:00000001FF
