:020000040000FA
:020000000F28C7
:08000800A400030EA50023145F
:100010000B108600250E8300A40E240E0900831603
:1000200006309F00F8308600F0308500831285018D
:100030001B2085001828A0010E308600061E3128DE
:10004000A00A861E3128A00A061F3128A00A861F92
:100050003128A00A0C30200203191B280314860D36
:100060001E284A20061E3228861E3428061F3628DF
:10007000861F382820083D2008008207FE34FB3404
:10008000F834F534FD34FA34F734FF34FC34F93401
:10009000F634F4343230A200F930A1000000A10B94
:0800A0004E28A20B4C280800B9
:02400E00313F40
:00000001FF
