:020000040000FA
:100000000313831606309F008B0180308600F0308A
:10001000850084308100831286010930A0000330FE
:10002000A1000830A2000430A3000630A400013073
:10003000A5000030A6000230A7002030B300243015
:10004000B40033082620340826202128B500323099
:10005000B20035082E20B20B292808008400043095
:10006000B000EF30B100EF3085000008422086007C
:10007000B10C310885004D200B1D3C28840AB00BC3
:100080003528080082074034793424343034193458
:10009000123403347834003418340B116530810085
:0200A000080056
:02400E00313F40
:00000001FF
