:020000040000FA
:020000001128C5
:08000800A400030EA500831201
:1000100003131A08A3002614250E8300A40E240E31
:1000200009008316031387170713193099008530C9
:10003000810006309F00FC3085008601980118136E
:10004000981618151812C0308B008C16831298174A
:1000500018131816A101A20164308100261C312852
:100060003628A61C5320A61889202E2826100A30D0
:100070002302031940280B302302031D2E28502889
:100080005320261C40280A302302031940280B3035
:100090002302031950282610A610762053202E285C
:1000A000A61489202E28FE308500210865208600B0
:1000B0005F2085092208652086005F2008000B1D4F
:1000C0005F28643081000B110800820740347934C6
:1000D000243430341934123403347834003418346E
:1000E000083400344634403406340E342308A80063
:1000F00003190800A10A0A302102031D862880285E
:10010000A101A20A0A3022020319A201A80B7A282F
:100110000800051085100630A8000A30A90028083C
:10012000982086005F20A90B9228A80B8D28080034
:100130008207FF347E347D347B3477346F345F3410
:02400E00313F40
:00000001FF
